:020000040800F2
:1000000038040020450100084D0100084F01000898
:1000100051010008530100085501000800000000CC
:100020000000000000000000000000005701000870
:1000300059010008000000005B0100085D01000894
:100040005F0100085F0100085F0100085F01000810
:100050005F0100085F0100085F0100085F01000800
:100060005F0100085F0100085F0100085F010008F0
:100070005F0100085F0100085F0100085F010008E0
:100080005F0100085F0100085F0100085F010008D0
:10009000ED0F00085F0100085F0100085F01000824
:1000A0005F0100085F0100085F0100085F010008B0
:1000B0005F010008450D00085F0100085F010008AE
:1000C0005F0100085F0100085F0100085F01000890
:1000D0005F0100085F0100085F0100085F01000880
:1000E0005F0100085F0100085F0100085F01000870
:1000F0005F0100085F0100085F0100085F01000860
:100100005F0100085F0100085F0100085F0100084F
:100110005F0100085F0100085F0100085F0100083F
:100120005F0100085F0100085F0100085F0100082F
:10013000DFF80CD000F018F800480047B9130008A9
:10014000380400200648804706480047FEE7FEE7DF
:10015000FEE7FEE7FEE7FEE7FEE7FEE7FEE7FEE777
:10016000E50C000831010008064C074D06E0E06888
:1001700040F0010394E8070098471034AC42F6D3EE
:10018000FFF7DAFFC0140008E014000808B50121E9
:10019000082000F023FD4FF40040ADF800001020CF
:1001A0008DF8030003208DF802006946014800F035
:1001B0000AFC08BD000C014070B50446002511E0A2
:1001C0004FF40041094800F08BFC642001F0E6F890
:1001D0004FF40041054800F081FC642001F0DEF896
:1001E000681CC5B2A542EBDB70BD0000000C0140ED
:1001F00000B589B00121480600F0E0FC012105208E
:1002000000F0ECFC18208DF817004FF48050ADF88A
:10021000140003208DF8160005A9534800F0D3FB05
:1002200048208DF817004FF40060ADF8140003204B
:100230008DF8160005A94C4800F0C5FB00208DF88C
:100240001F008DF8200003208DF81C008DF81D0084
:1002500000208DF81A0001208DF821000420ADF84F
:10026000180000208DF822008DF81B008DF81E006C
:100270008DF8230006A93D4800F007FA01208DF80B
:1002800011000020ADF80C0001208DF810000020B6
:100290008DF80F000820ADF804008002ADF80600CC
:1002A0004FF6F870ADF808004FF47840ADF80A004A
:1002B00000208DF80E0001A800F0CAF801208DF88A
:1002C0000E0000208DF80F0001208DF8100008208E
:1002D000ADF804000020ADF806004FF6F870ADF858
:1002E00008000020ADF80A00ADF80C0001208DF8E0
:1002F000110001A800F0ACF802208DF80E000020DB
:100300008DF80F0001208DF8100040F68A10ADF82E
:10031000040040F6A820ADF8060040F2FF70ADF8EA
:1003200008004FF6F870ADF80A000020ADF80C0098
:1003300001208DF8110001A800F08AF814208DF832
:10034000000002208DF8010000208DF8020001203D
:100350008DF80300684600F0EFFB012202210348FC
:1003600000F08AF909B000BD0008014000640040B7
:1003700000220C4B994202D10023836111E0C1F3AA
:10038000130201F000730BB1C2600AE001F0806358
:100390000BB1026105E001F000630BB1826000E087
:1003A000426070477000F030B1F5007F3AD00FDC4A
:1003B000202928D006DC01291CD004291DD00829B9
:1003C00040D11DE0402921D0B1F5807F3AD126E00F
:1003D000B1F5004F31D006DCB1F5806F25D0B1F515
:1003E000006F2FD124E0B1F5803F12D0B1F5003F6E
:1003F00028D111E0154A826025E00822C26022E07F
:100400001022C2601FE0082202611CE0102202617B
:1004100019E00822426016E01022426013E0042234
:10042000426010E0042242600DE0042242600AE0D3
:10043000002282610422426005E0002282610422DF
:10044000426000E000BF00BF7047000001010100F2
:1004500010B50021837A012202FA03F13D4A1268A5
:1004600042F001023B4B1A603A4A1C3212688A433E
:10047000384B1C331A60027BCAB9364A0C321268F8
:100480008A43344B0C331A604288C38842EA0343E0
:10049000304A4032847A42F834300288838842EA13
:1004A00003432C4A4032847A02EBC4025360027B3D
:1004B000012A19D1274A0C3212680A43254B0C3302
:1004C0001A604288038842EA0343224A4032847A0F
:1004D00042F83430C288838842EA03431D4A4032DE
:1004E000847A02EBC4025360C27A3AB9194A121DE7
:1004F00012688A43174B1B1D1A6006E0154A121D2D
:1005000012680A43134B1B1D1A60028932B9114A43
:10051000143212688A430F4B14331A600289012A7D
:1005200006D10C4A143212680A430A4B14331A607B
:10053000427B012A06D1074A1C3212680A43054B46
:100540001C331A60034A126822F00102014B1A6040
:1005500010BD00000066004070B504460D46002640
:1005600060692840002871D0B5F5807F5CD010DC30
:10057000082D35D006DC012D20D0022D24D0042DED
:1005800072D127E0102D31D0202D35D0402D6BD1E8
:1005900038E0B5F5004F60D009DCB5F5007F49D0F3
:1005A000B5F5806F4CD0B5F5006F5DD14FE0B5F576
:1005B000803F2DD0B5F5003F56D12FE0A0682D49E2
:1005C00000F0F8F9064651E0E068032100F0F2F986
:1005D00006464BE0E068082100F0ECF9064645E0ED
:1005E000E068102100F0E6F906463FE020690321AB
:1005F00000F0E0F9064639E02069082100F0DAF958
:10060000064633E02069102100F0D4F906462DE0BB
:100610006068082100F0CEF9064627E060681021E6
:1006200000F0C8F9064621E0A069012100F0C2F9F6
:1006300006461BE0A069022100F0BCF9064615E061
:10064000A069042100F0B6F906460FE00FE0A069AA
:10065000702100F0AFF9064608E06068042100F060
:10066000A9F9064602E0FFE7002600BF00E00026E9
:10067000304670BD010101001AB143690B4343616B
:1006800002E043698B434361704730B50246002066
:100690000023146824F002041460146844F0010478
:1006A000146000E05B1C546804F001041CB94FF6B0
:1006B000FF74A342F6D1546804F001040CB9002081
:1006C0006CE08C79012C04D1146844F0800414602F
:1006D00003E0146824F080041460CC79012C04D168
:1006E000146844F04004146003E0146824F04004EB
:1006F00014600C7A012C04D1146844F020041460B6
:1007000003E0146824F0200414604C7A012C04D116
:10071000146844F01004146003E0146824F010041A
:1007200014608C7A012C04D1146844F0080414601D
:1007300003E0146824F008041460CC7A012C04D17E
:10074000146844F00404146003E0146824F0040402
:1007500014608C78A407CD7844EA05640D7944EAE6
:1007600005444D7944EA05540D886D1E2C43D4612F
:10077000146824F001041460002300E05B1C54683A
:1007800004F001041CB14FF6FF74A342F6D1546883
:1007900004F001040CB1002000E0012030BD10B5D0
:1007A00000F5D87303EB01131B6803F00403137205
:1007B000137A53B900F5D87303EB01131B6840F2A9
:1007C000FF7404EA5353136009E000F5D87303EB98
:1007D00001131B686FF0604404EAD303536000F513
:1007E000D87303EB01131B6803F00203537200F587
:1007F000D87303EB01135B6803F00F03937200F5EA
:10080000D87303EB01135B681B0AD37400F5D8732C
:1008100003EB01139B68D37200F5D87303EB01134C
:100820009B681C0A147300F5D87303EB01139B68D3
:100830001C0C547300F5D87303EB01139B681B0E5B
:10084000937300F5D87303EB0113DB68D37300F5E2
:10085000D87303EB0113DB681C0A147400F5D8731A
:1008600003EB0113DB681C0C547400F5D87303EB25
:100870000113DB681B0E937421B9C36843F0200396
:10088000C36003E0036943F02003036110BD10B5AA
:1008900002460020936803F08063B3F1806F00D1BB
:1008A00010E0936803F00063B3F1006F01D1012001
:1008B00008E0936803F08053B3F1805F01D1022018
:1008C00000E00420042874D002F5C07303EB001389
:1008D0001B6803F0010402F5C07303EB00131C60F6
:1008E0000B7A7BB94B7A0C8843EA445302F5C07407
:1008F00004EB00142468234302F5C07404EB0014D5
:10090000236010E00B7A4C6843EAC4034C7A23431B
:1009100002F5C07404EB00142468234302F5C0748C
:1009200004EB001423608B7A03F00F038B7202F543
:10093000C07303EB00135B6823F00F0402F5C07370
:1009400003EB00135C6002F5C07303EB00135B68FC
:100950008C7A234302F5C07404EB001463608B7B34
:100960001C064B7B44EA03440B7B44EA0323CC7A0A
:10097000234302F5C07404EB0014A3608B7C1C06B7
:100980004B7C44EA03440B7C44EA0323CC7B2343A3
:1009900002F5C07404EB0014E36002F5C07303EBCE
:1009A00000131B6843F0010402F5C07303EB00134E
:1009B0001C6010BD0246002002EA01030BB10120B9
:1009C00000E0002070472DE9F04102460025002696
:1009D000002000230024002791F803C00CF00F052D
:1009E00091F803C00CF0100CBCF1000F03D091F88B
:1009F00002C04CEA050591F800C0BCF1000F31D0EF
:100A0000146800202BE04FF0010C0CFA00F3B1F851
:100A100000C00CEA03069E4220D183004FF00F0C69
:100A20000CFA03F7BC4305FA03FC4CEA040491F802
:100A300003C0BCF1280F06D14FF0010C0CFA00FCEA
:100A4000C2F814C00AE091F803C0BCF1480F05D108
:100A50004FF0010C0CFA00FCC2F810C0401C082832
:100A6000D1D31460B1F800C0BCF1FF0F34DD54687D
:100A700000202EE000F1080C4FF0010808FA0CF3FA
:100A8000B1F800C00CEA03069E4221D183004FF06A
:100A90000F0C0CFA03F7BC4305FA03FC4CEA040400
:100AA00091F803C0BCF1280F05D100F1080C08FA39
:100AB0000CF8C2F8148091F803C0BCF1480F07D1BC
:100AC00000F1080C4FF0010808FA0CF8C2F8108089
:100AD000401C0828CED35460BDE8F08141617047C6
:100AE0000161704708B50121082000F077F84FF444
:100AF0004060ADF8000010208DF8030003208DF851
:100B0000020069460448FFF75EFF4FF44061024867
:100B1000FFF7E6FF08BD0000000C014010B54FF4E0
:100B200040610448FFF7DAFF4FF440610148FFF7E6
:100B3000D5FF10BD000C014070B5002100230F222D
:100B4000C47804B3154C246804F4E064C4F5E0648C
:100B5000210AC1F10403CA40447804FA03F18478FD
:100B60001440214309010E4C0678A155047804F085
:100B70001F050124AC4005786D11AD0005F1E0259D
:100B8000C5F8004109E0047804F01F050124AC40D9
:100B9000044D0678761145F8264070BD0CED00E056
:100BA00000E400E080E100E002490143024A1160F4
:100BB000704700000000FA050CED00E029B1064A7C
:100BC000D2690243044BDA6104E0034AD2698243EA
:100BD000014BDA61704700000010024029B1064A5B
:100BE00092690243044B9A6104E0034A926982438A
:100BF000014B9A61704700000010024010B500F0F0
:100C000001F810BD0CB50020019000903348006839
:100C100040F480303149086000BF3048006800F47B
:100C2000003000900198401C0190009818B901987C
:100C3000B0F5A06FF1D12948006800F4003010B180
:100C40000120009001E0002000900098012843D18D
:100C50002348006840F010002149086008460068F9
:100C600020F0030008600846006840F002000860B9
:100C70001A48406819494860084640684860084674
:100C8000406840F4806048600846406820F47C106A
:100C900048600846406840F4E8104860084600682C
:100CA00040F08070086000BF0C48006800F00070E1
:100CB0000028F9D00948406820F00300074948603F
:100CC0000846406840F00200486000BF03484068A2
:100CD00000F00C000828F9D10CBD00000010024003
:100CE0000020024010B51348006840F0010011498F
:100CF000086008464068104908400E4948600846A8
:100D000000680E4908400B4908600846006820F456
:100D1000802008600846406820F4FE0048604FF4D8
:100D20001F008860FFF76AFF4FF000600449086009
:100D300010BD0000001002400000FFF8FFFFF6FEAB
:100D400008ED00E010B501214C4800F0E3F801285F
:100D50007ED14B48007AA0B14948008A401C4849DE
:100D600008820846008A40F28A21884209DB012075
:100D70004349087300200872084600780871002073
:100D800008823F48407A88B13D48408A401C3C492F
:100D900048820846408A142808DB01204873002056
:100DA0004872084640784871002008823448807AAA
:100DB000002846D03248008B401C31490883084641
:100DC000807801281CD10846008BB0F5FA7F07DB3C
:100DD00001202C4948702A48808A401C2849888272
:100DE0002748808AB0F5C86F2BDB0120244988731F
:100DF000002088720846807888710020888220E070
:100E00001F48008B401C1E4908830846008BB0F524
:100E1000FA7F07DB00201B4948701948808A401C74
:100E2000174988821648808AB0F5C86F09DB01200F
:100E300013498873002088720846807888710020E2
:100E400088820F48C07A18B10D48C08A401C00E063
:100E50000EE00B49C8820846C08A142808DB01202E
:100E6000C8730020C8720846C078C8710020C882C4
:100E70000121024800F03FF810BD000000040040CE
:100E800008000020000000201FB501210220FFF70C
:100E900095FE4720ADF8080040F2E730ADF80400B9
:100EA0000020ADF80A00ADF8060001A90F4800F0D7
:100EB0004BF81D208DF8000001208DF80100002066
:100EC0008DF8020001208DF803006846FFF734FE1C
:100ED0000121064800F00CF801221146034800F0F9
:100EE0002AF80121014800F009F81FBD0004004064
:100EF000CA4302827047CA430282704721B1028806
:100F000042F00102028004E002884FF6FE731A40AC
:100F10000280704730B50246002000230024158A65
:100F200005EA0103958905EA010413B10CB101201A
:100F300000E0002030BD1AB183890B43838102E0B9
:100F400083898B4383817047002202881D4B98421E
:100F50000ED01D4B98420BD0B0F1804F08D01B4BE8
:100F6000984205D01A4B984202D01A4B984204D1AD
:100F70004FF68F731A404B881A43174B984207D08D
:100F8000164B984204D04FF6FF431A40CB881A43C1
:100F900002808B8883850B8803850A4B98420BD08F
:100FA000094B984208D00E4B984205D00D4B984201
:100FB00002D00D4B984201D10B7A03860123838224
:100FC00070470000002C0140003401400004004044
:100FD00000080040000C00400010004000140040D9
:100FE00000400140004401400048014000B585B088
:100FF00002219548FFF7B0FA00286FD0934A0021EC
:101000009148FFF7CCFB02218F48FFF7CDF9022171
:101010008D48FFF7ADF98D48007A04285ED18B48E2
:10102000407A0028FAD189484068894988426FD1BE
:101030008648C07A5328FAD18448007B5728F6D1D5
:101040008248407B08B1012000E0002081490870FF
:101050007E48807B08B1012000E000207D49887037
:101060007A48C07B08B1012000E00020794948702F
:101070007648007C08B1012000E000207549C87066
:1010800008460078097988420FD072480078012814
:1010900002D17149087002E000206F4908700120F8
:1010A0006C4908720020087302E001206949087346
:1010B0006848807867498979884210D06548807887
:1010C000012802D16449C87102E000206249C87158
:1010D0000120604988720020887303E053E00120FA
:1010E0005C4988735B4840785A494979884210D0F6
:1010F00058484078012802D15749887002E0002002
:10110000554988700120534948720020487303E014
:101110001EE001204F4948734E48C0784D49C979B7
:1011200088420FD04B48C078012802D14A49C87084
:1011300002E000204849C87001204649C8720020DA
:10114000C87302E001204349C873404800F0C8F862
:101150003E484068B0F5823F73D13C48C07A98B9A8
:101160003A48007B43286CD13848407B572868D1E7
:101170003648807B482864D13448C07B552860D1EC
:10118000324800F0ADF85CE03048C07A042858D10D
:101190002E48007B8F280DD12C48407B4E2809D14A
:1011A00001212A48807B401E2B4A1154274800F019
:1011B00097F846E02548007B85280DD12348407BE1
:1011C000462809D100212148807B401E224A115423
:1011D0001E4800F085F834E01C48007B8E2830D192
:1011E0001A48407B4F282CD11848807B572828D19B
:1011F0001A48019000208DF8090004208DF808009D
:1012000008208DF80A001148C07A8030C0B28DF8ED
:101210000B000E48017B8DF80C10417B8DF80D10F2
:10122000817B8DF80E10C17B8DF80F10C07B401EA6
:101230000949095C8DF8101069460348FFF727FB40
:1012400000BF05B000BD0000006400402400002085
:101250005541310108000020000000200101040078
:1012600008B501210420FFF7B9FC0C20ADF80000FF
:1012700010208DF8030002208DF8020069460E4808
:10128000FFF7A1FB01210820FFF7A8FCF320ADF830
:10129000000010208DF8030002208DF8020069463E
:1012A0000648FFF790FBF3210448FFF719FC0C21D7
:1012B0000148FFF715FC08BD00080140000C014083
:1012C00002E008C8121F08C1002AFAD1704770470F
:1012D000002001E001C1121F002AFBD1704700006D
:1012E00010B586B004466068B0F5823F24D1264828
:1012F000029000208DF80D0004208DF80C00A07ADB
:101300008DF80E00E07A4030C0B28DF80F00217BDE
:101310008DF81010617B8DF81110A17B8DF81210E3
:10132000E17B8DF81310217C8DF81410617C8DF811
:101330001510A17C8DF816101449606888421DD1E3
:101340001348029000208DF80D0004208DF80C0049
:1013500006208DF80E0053208DF80F0057218DF8D0
:1013600010100C48017B8DF81110817B8DF8121044
:10137000417B8DF81310C17B8DF8141001A906482C
:10138000FFF785FA06B010BD010104005541310197
:1013900015131405080000200064004010B500215A
:1013A00007E04FF4E15200BF131EA2F10102FBD18E
:1013B000491C8142F5D310BD4FF4A060FFF7F4FB48
:1013C000FFF74EFFFEF714FFFFF78CFBFEF7DEFE84
:1013D000FFF75AFD0320FEF7EFFE002003E0002197
:1013E000344A1154401C0828F9DB61E0FFF796FBF2
:1013F0003048007820B102212F48FFF76FFB03E04F
:1014000002212D48FFF76CFB2A48407820B10121CA
:101410002948FFF763FB03E001212748FFF760FB42
:101420002448807820B108212448FFF757FB03E0C7
:1014300008212248FFF754FB1E48C07820B1042140
:101440001E48FFF74BFB03E004211C48FFF748FB55
:101450001848007920B110211748FFF73FFB03E03F
:1014600010211548FFF73CFB1248407920B120219C
:101470001148FFF733FB03E020210F48FFF730FB53
:101480000C48807920B140210B48FFF727FB03E08F
:1014900040210948FFF724FB0648C07920B180218C
:1014A0000548FFF71BFB03E080210348FFF718FB0B
:1014B0009CE7000000000020000C014000080140F3
:1014C000E01400080000002008000000C01200081E
:1014D000E81400080800002030040000D0120008C2
:0814E000000000000000000004
:0400000508000131BD
:00000001FF
